{
  "_format": "hh-sol-artifact-1",
  "contractName": "ReceiptVerification",
  "sourceName": "contracts/ReceiptVerification.sol",
  "abi": [
    {
      "inputs": [],
      "stateMutability": "nonpayable",
      "type": "constructor"
    },
    {
      "inputs": [
        {
          "internalType": "address",
          "name": "owner",
          "type": "address"
        }
      ],
      "name": "OwnableInvalidOwner",
      "type": "error"
    },
    {
      "inputs": [
        {
          "internalType": "address",
          "name": "account",
          "type": "address"
        }
      ],
      "name": "OwnableUnauthorizedAccount",
      "type": "error"
    },
    {
      "inputs": [],
      "name": "ReentrancyGuardReentrantCall",
      "type": "error"
    },
    {
      "anonymous": false,
      "inputs": [
        {
          "indexed": true,
          "internalType": "address",
          "name": "businessAddress",
          "type": "address"
        },
        {
          "indexed": false,
          "internalType": "string",
          "name": "businessName",
          "type": "string"
        },
        {
          "indexed": false,
          "internalType": "uint256",
          "name": "timestamp",
          "type": "uint256"
        }
      ],
      "name": "BusinessRegistered",
      "type": "event"
    },
    {
      "anonymous": false,
      "inputs": [
        {
          "indexed": true,
          "internalType": "address",
          "name": "previousOwner",
          "type": "address"
        },
        {
          "indexed": true,
          "internalType": "address",
          "name": "newOwner",
          "type": "address"
        }
      ],
      "name": "OwnershipTransferred",
      "type": "event"
    },
    {
      "anonymous": false,
      "inputs": [
        {
          "indexed": true,
          "internalType": "uint256",
          "name": "receiptId",
          "type": "uint256"
        },
        {
          "indexed": true,
          "internalType": "address",
          "name": "vendor",
          "type": "address"
        },
        {
          "indexed": false,
          "internalType": "uint256",
          "name": "timestamp",
          "type": "uint256"
        }
      ],
      "name": "ReceiptApproved",
      "type": "event"
    },
    {
      "anonymous": false,
      "inputs": [
        {
          "indexed": true,
          "internalType": "uint256",
          "name": "receiptId",
          "type": "uint256"
        },
        {
          "indexed": true,
          "internalType": "address",
          "name": "canceller",
          "type": "address"
        },
        {
          "indexed": false,
          "internalType": "uint256",
          "name": "timestamp",
          "type": "uint256"
        }
      ],
      "name": "ReceiptCancelled",
      "type": "event"
    },
    {
      "anonymous": false,
      "inputs": [
        {
          "indexed": true,
          "internalType": "uint256",
          "name": "receiptId",
          "type": "uint256"
        },
        {
          "indexed": true,
          "internalType": "address",
          "name": "disputer",
          "type": "address"
        },
        {
          "indexed": false,
          "internalType": "string",
          "name": "reason",
          "type": "string"
        },
        {
          "indexed": false,
          "internalType": "uint256",
          "name": "timestamp",
          "type": "uint256"
        }
      ],
      "name": "ReceiptDisputed",
      "type": "event"
    },
    {
      "anonymous": false,
      "inputs": [
        {
          "indexed": true,
          "internalType": "uint256",
          "name": "receiptId",
          "type": "uint256"
        },
        {
          "indexed": true,
          "internalType": "address",
          "name": "vendor",
          "type": "address"
        },
        {
          "indexed": false,
          "internalType": "string",
          "name": "reason",
          "type": "string"
        },
        {
          "indexed": false,
          "internalType": "uint256",
          "name": "timestamp",
          "type": "uint256"
        }
      ],
      "name": "ReceiptRejected",
      "type": "event"
    },
    {
      "anonymous": false,
      "inputs": [
        {
          "indexed": true,
          "internalType": "uint256",
          "name": "receiptId",
          "type": "uint256"
        },
        {
          "indexed": true,
          "internalType": "address",
          "name": "customer",
          "type": "address"
        },
        {
          "indexed": true,
          "internalType": "address",
          "name": "vendor",
          "type": "address"
        },
        {
          "indexed": false,
          "internalType": "string",
          "name": "vendorName",
          "type": "string"
        },
        {
          "indexed": false,
          "internalType": "uint256",
          "name": "amount",
          "type": "uint256"
        },
        {
          "indexed": false,
          "internalType": "uint256",
          "name": "transactionDate",
          "type": "uint256"
        },
        {
          "indexed": false,
          "internalType": "uint256",
          "name": "timestamp",
          "type": "uint256"
        },
        {
          "indexed": false,
          "internalType": "uint256",
          "name": "deadline",
          "type": "uint256"
        }
      ],
      "name": "ReceiptRequested",
      "type": "event"
    },
    {
      "anonymous": false,
      "inputs": [
        {
          "indexed": true,
          "internalType": "uint256",
          "name": "receiptId",
          "type": "uint256"
        },
        {
          "indexed": true,
          "internalType": "address",
          "name": "verifier",
          "type": "address"
        },
        {
          "indexed": false,
          "internalType": "uint256",
          "name": "timestamp",
          "type": "uint256"
        }
      ],
      "name": "ReceiptVerified",
      "type": "event"
    },
    {
      "inputs": [
        {
          "internalType": "uint256",
          "name": "_receiptId",
          "type": "uint256"
        }
      ],
      "name": "approveReceipt",
      "outputs": [],
      "stateMutability": "nonpayable",
      "type": "function"
    },
    {
      "inputs": [
        {
          "internalType": "address",
          "name": "",
          "type": "address"
        },
        {
          "internalType": "uint256",
          "name": "",
          "type": "uint256"
        }
      ],
      "name": "businessReceipts",
      "outputs": [
        {
          "internalType": "uint256",
          "name": "",
          "type": "uint256"
        }
      ],
      "stateMutability": "view",
      "type": "function"
    },
    {
      "inputs": [
        {
          "internalType": "address",
          "name": "",
          "type": "address"
        }
      ],
      "name": "businesses",
      "outputs": [
        {
          "internalType": "string",
          "name": "name",
          "type": "string"
        },
        {
          "internalType": "string",
          "name": "description",
          "type": "string"
        },
        {
          "internalType": "address",
          "name": "owner",
          "type": "address"
        },
        {
          "internalType": "bool",
          "name": "isActive",
          "type": "bool"
        },
        {
          "internalType": "uint256",
          "name": "totalReceipts",
          "type": "uint256"
        }
      ],
      "stateMutability": "view",
      "type": "function"
    },
    {
      "inputs": [
        {
          "internalType": "uint256",
          "name": "_receiptId",
          "type": "uint256"
        }
      ],
      "name": "cancelReceipt",
      "outputs": [],
      "stateMutability": "nonpayable",
      "type": "function"
    },
    {
      "inputs": [
        {
          "internalType": "uint256",
          "name": "_receiptId",
          "type": "uint256"
        },
        {
          "internalType": "string",
          "name": "_reason",
          "type": "string"
        }
      ],
      "name": "disputeReceipt",
      "outputs": [],
      "stateMutability": "nonpayable",
      "type": "function"
    },
    {
      "inputs": [
        {
          "internalType": "address",
          "name": "_business",
          "type": "address"
        }
      ],
      "name": "getBusinessReceipts",
      "outputs": [
        {
          "internalType": "uint256[]",
          "name": "",
          "type": "uint256[]"
        }
      ],
      "stateMutability": "view",
      "type": "function"
    },
    {
      "inputs": [
        {
          "internalType": "address",
          "name": "_vendor",
          "type": "address"
        }
      ],
      "name": "getPendingRequests",
      "outputs": [
        {
          "internalType": "uint256[]",
          "name": "",
          "type": "uint256[]"
        }
      ],
      "stateMutability": "view",
      "type": "function"
    },
    {
      "inputs": [
        {
          "internalType": "uint256",
          "name": "_receiptId",
          "type": "uint256"
        }
      ],
      "name": "getReceipt",
      "outputs": [
        {
          "components": [
            {
              "internalType": "uint256",
              "name": "id",
              "type": "uint256"
            },
            {
              "internalType": "address",
              "name": "issuer",
              "type": "address"
            },
            {
              "internalType": "address",
              "name": "recipient",
              "type": "address"
            },
            {
              "internalType": "string",
              "name": "vendorName",
              "type": "string"
            },
            {
              "internalType": "string",
              "name": "description",
              "type": "string"
            },
            {
              "internalType": "uint256",
              "name": "amount",
              "type": "uint256"
            },
            {
              "internalType": "uint256",
              "name": "transactionDate",
              "type": "uint256"
            },
            {
              "internalType": "uint256",
              "name": "requestTimestamp",
              "type": "uint256"
            },
            {
              "internalType": "uint256",
              "name": "deadline",
              "type": "uint256"
            },
            {
              "internalType": "enum ReceiptVerification.ReceiptStatus",
              "name": "status",
              "type": "uint8"
            },
            {
              "internalType": "string",
              "name": "ipfsHash",
              "type": "string"
            },
            {
              "internalType": "string",
              "name": "rejectionReason",
              "type": "string"
            },
            {
              "internalType": "string",
              "name": "disputeReason",
              "type": "string"
            },
            {
              "internalType": "bool",
              "name": "exists",
              "type": "bool"
            }
          ],
          "internalType": "struct ReceiptVerification.Receipt",
          "name": "",
          "type": "tuple"
        }
      ],
      "stateMutability": "view",
      "type": "function"
    },
    {
      "inputs": [],
      "name": "getTotalReceipts",
      "outputs": [
        {
          "internalType": "uint256",
          "name": "",
          "type": "uint256"
        }
      ],
      "stateMutability": "view",
      "type": "function"
    },
    {
      "inputs": [
        {
          "internalType": "address",
          "name": "_user",
          "type": "address"
        }
      ],
      "name": "getUserReceipts",
      "outputs": [
        {
          "internalType": "uint256[]",
          "name": "",
          "type": "uint256[]"
        }
      ],
      "stateMutability": "view",
      "type": "function"
    },
    {
      "inputs": [],
      "name": "owner",
      "outputs": [
        {
          "internalType": "address",
          "name": "",
          "type": "address"
        }
      ],
      "stateMutability": "view",
      "type": "function"
    },
    {
      "inputs": [
        {
          "internalType": "uint256",
          "name": "",
          "type": "uint256"
        }
      ],
      "name": "receipts",
      "outputs": [
        {
          "internalType": "uint256",
          "name": "id",
          "type": "uint256"
        },
        {
          "internalType": "address",
          "name": "issuer",
          "type": "address"
        },
        {
          "internalType": "address",
          "name": "recipient",
          "type": "address"
        },
        {
          "internalType": "string",
          "name": "vendorName",
          "type": "string"
        },
        {
          "internalType": "string",
          "name": "description",
          "type": "string"
        },
        {
          "internalType": "uint256",
          "name": "amount",
          "type": "uint256"
        },
        {
          "internalType": "uint256",
          "name": "transactionDate",
          "type": "uint256"
        },
        {
          "internalType": "uint256",
          "name": "requestTimestamp",
          "type": "uint256"
        },
        {
          "internalType": "uint256",
          "name": "deadline",
          "type": "uint256"
        },
        {
          "internalType": "enum ReceiptVerification.ReceiptStatus",
          "name": "status",
          "type": "uint8"
        },
        {
          "internalType": "string",
          "name": "ipfsHash",
          "type": "string"
        },
        {
          "internalType": "string",
          "name": "rejectionReason",
          "type": "string"
        },
        {
          "internalType": "string",
          "name": "disputeReason",
          "type": "string"
        },
        {
          "internalType": "bool",
          "name": "exists",
          "type": "bool"
        }
      ],
      "stateMutability": "view",
      "type": "function"
    },
    {
      "inputs": [
        {
          "internalType": "string",
          "name": "_name",
          "type": "string"
        },
        {
          "internalType": "string",
          "name": "_description",
          "type": "string"
        }
      ],
      "name": "registerBusiness",
      "outputs": [],
      "stateMutability": "nonpayable",
      "type": "function"
    },
    {
      "inputs": [
        {
          "internalType": "uint256",
          "name": "_receiptId",
          "type": "uint256"
        },
        {
          "internalType": "string",
          "name": "_reason",
          "type": "string"
        }
      ],
      "name": "rejectReceipt",
      "outputs": [],
      "stateMutability": "nonpayable",
      "type": "function"
    },
    {
      "inputs": [],
      "name": "renounceOwnership",
      "outputs": [],
      "stateMutability": "nonpayable",
      "type": "function"
    },
    {
      "inputs": [
        {
          "internalType": "address",
          "name": "_vendorAddress",
          "type": "address"
        },
        {
          "internalType": "string",
          "name": "_vendorName",
          "type": "string"
        },
        {
          "internalType": "string",
          "name": "_description",
          "type": "string"
        },
        {
          "internalType": "uint256",
          "name": "_amount",
          "type": "uint256"
        },
        {
          "internalType": "uint256",
          "name": "_transactionDate",
          "type": "uint256"
        },
        {
          "internalType": "string",
          "name": "_ipfsHash",
          "type": "string"
        }
      ],
      "name": "requestReceipt",
      "outputs": [],
      "stateMutability": "nonpayable",
      "type": "function"
    },
    {
      "inputs": [
        {
          "internalType": "uint256",
          "name": "_period",
          "type": "uint256"
        }
      ],
      "name": "setStatusChangePeriod",
      "outputs": [],
      "stateMutability": "nonpayable",
      "type": "function"
    },
    {
      "inputs": [
        {
          "internalType": "address",
          "name": "newOwner",
          "type": "address"
        }
      ],
      "name": "transferOwnership",
      "outputs": [],
      "stateMutability": "nonpayable",
      "type": "function"
    },
    {
      "inputs": [
        {
          "internalType": "address",
          "name": "",
          "type": "address"
        },
        {
          "internalType": "uint256",
          "name": "",
          "type": "uint256"
        }
      ],
      "name": "userReceipts",
      "outputs": [
        {
          "internalType": "uint256",
          "name": "",
          "type": "uint256"
        }
      ],
      "stateMutability": "view",
      "type": "function"
    },
    {
      "inputs": [
        {
          "internalType": "uint256",
          "name": "_receiptId",
          "type": "uint256"
        }
      ],
      "name": "verifyReceipt",
      "outputs": [],
      "stateMutability": "nonpayable",
      "type": "function"
    }
  ],
  "bytecode": "0x6080604052348015600f57600080fd5b503380603557604051631e4fbdf760e01b81526000600482015260240160405180910390fd5b603c81604c565b506001805562093a80600255609c565b600080546001600160a01b038381166001600160a01b0319831681178455604051919092169283917f8be0079c531659141344cd1fd0a4f28419497f9722a3daafe3b4186f6b6457e09190a35050565b612eaf806100ab6000396000f3fe608060405234801561001057600080fd5b506004361061012c5760003560e01c80638da5cb5b116100ad578063a843c5fe11610071578063a843c5fe14610278578063b31e26e41461028b578063b63e6ac3146102af578063f05bfa7b146102cf578063f2fde38b146102e257600080fd5b80638da5cb5b1461021157806395ed9f0e1461022c5780639e19bb591461023f578063a0ee0dc914610252578063a368f93f1461026557600080fd5b806325c03426116100f457806325c03426146101bd578063507d9d15146101d05780635d910ec1146101e3578063715018a6146101f657806377664c87146101fe57600080fd5b80630478460f146101315780630535fa9c146101485780630f7ee1ec146101685780631830e71a1461019557806322ffd37f146101aa575b600080fd5b6003545b6040519081526020015b60405180910390f35b61015b6101563660046125fb565b6102f5565b60405161013f919061261d565b61017b610176366004612655565b610361565b60405161013f9e9d9c9b9a999897969594939291906126ec565b6101a86101a3366004612867565b61068c565b005b6101a86101b8366004612655565b610872565b6101a86101cb366004612867565b610a7a565b6101a86101de366004612655565b610f9f565b6101a86101f13660046128ae565b611526565b6101a86116c1565b6101a861020c366004612655565b6116d5565b6000546040516001600160a01b03909116815260200161013f565b61013561023a366004612901565b611732565b61015b61024d3660046125fb565b611763565b6101a861026036600461292b565b6117cd565b6101a8610273366004612655565b611c19565b610135610286366004612901565b611d99565b61029e6102993660046125fb565b611db5565b60405161013f9594939291906129e2565b6102c26102bd366004612655565b611f03565b60405161013f9190612a2e565b61015b6102dd3660046125fb565b6122da565b6101a86102f03660046125fb565b612466565b6001600160a01b03811660009081526007602090815260409182902080548351818402810184019094528084526060939283018282801561035557602002820191906000526020600020905b815481526020019060010190808311610341575b50505050509050919050565b600460205260009081526040902080546001820154600283015460038401805493946001600160a01b0393841694939092169261039d90612b63565b80601f01602080910402602001604051908101604052809291908181526020018280546103c990612b63565b80156104165780601f106103eb57610100808354040283529160200191610416565b820191906000526020600020905b8154815290600101906020018083116103f957829003601f168201915b50505050509080600401805461042b90612b63565b80601f016020809104026020016040519081016040528092919081815260200182805461045790612b63565b80156104a45780601f10610479576101008083540402835291602001916104a4565b820191906000526020600020905b81548152906001019060200180831161048757829003601f168201915b5050505050908060050154908060060154908060070154908060080154908060090160009054906101000a900460ff169080600a0180546104e490612b63565b80601f016020809104026020016040519081016040528092919081815260200182805461051090612b63565b801561055d5780601f106105325761010080835404028352916020019161055d565b820191906000526020600020905b81548152906001019060200180831161054057829003601f168201915b50505050509080600b01805461057290612b63565b80601f016020809104026020016040519081016040528092919081815260200182805461059e90612b63565b80156105eb5780601f106105c0576101008083540402835291602001916105eb565b820191906000526020600020905b8154815290600101906020018083116105ce57829003601f168201915b50505050509080600c01805461060090612b63565b80601f016020809104026020016040519081016040528092919081815260200182805461062c90612b63565b80156106795780601f1061064e57610100808354040283529160200191610679565b820191906000526020600020905b81548152906001019060200180831161065c57829003601f168201915b505050600d909301549192505060ff168e565b6000828152600460205260409020600d0154829060ff166106c85760405162461bcd60e51b81526004016106bf90612b97565b60405180910390fd5b600083815260046020526040902060018101548491906001600160a01b031633146107055760405162461bcd60e51b81526004016106bf90612bc7565b80600801544211156107555760405162461bcd60e51b81526020600482015260196024820152781058dd1a5bdb881dda5b991bddc81a185cc8195e1c1a5c9959603a1b60448201526064016106bf565b61075d6124a4565b600085815260046020526040902060018101546001600160a01b031633146107c75760405162461bcd60e51b815260206004820152601e60248201527f4f6e6c792076656e646f722063616e2072656a6563742072656365697074000060448201526064016106bf565b6000600982015460ff1660068111156107e2576107e26126b4565b146107ff5760405162461bcd60e51b81526004016106bf90612c0e565b60098101805460ff19166002179055600b810161081c8682612c9c565b50336001600160a01b0316867f1c497db8325bc8a5afb493d5d6166bb84e5a3e03f2e34c15f019e5f471e3c78a8742604051610859929190612d5b565b60405180910390a35061086b60018055565b5050505050565b6000818152600460205260409020600d0154819060ff166108a55760405162461bcd60e51b81526004016106bf90612b97565b600082815260046020526040902060018101548391906001600160a01b031633146108e25760405162461bcd60e51b81526004016106bf90612bc7565b80600801544211156109325760405162461bcd60e51b81526020600482015260196024820152781058dd1a5bdb881dda5b991bddc81a185cc8195e1c1a5c9959603a1b60448201526064016106bf565b61093a6124a4565b600084815260046020526040902060018101546001600160a01b031633146109a45760405162461bcd60e51b815260206004820152601f60248201527f4f6e6c792076656e646f722063616e20617070726f766520726563656970740060448201526064016106bf565b6000600982015460ff1660068111156109bf576109bf6126b4565b146109dc5760405162461bcd60e51b81526004016106bf90612c0e565b60098101805460ff191660011790553360009081526005602052604090206002015460ff600160a01b9091041615610a3257336000908152600560205260408120600301805491610a2c83612d93565b91905055505b604051428152339086907fc1ef48eddd7047d61bf34c82d89ff4f8ce5e966da91b83946ad0a8c242d5f02a906020015b60405180910390a350610a7460018055565b50505050565b6000828152600460205260409020600d0154829060ff16610aad5760405162461bcd60e51b81526004016106bf90612b97565b600083815260046020908152604080832081516101c0810183528154815260018201546001600160a01b039081169482019490945260028201549093169183019190915260038101805487949392916060840191610b0a90612b63565b80601f0160208091040260200160405190810160405280929190818152602001828054610b3690612b63565b8015610b835780601f10610b5857610100808354040283529160200191610b83565b820191906000526020600020905b815481529060010190602001808311610b6657829003601f168201915b50505050508152602001600482018054610b9c90612b63565b80601f0160208091040260200160405190810160405280929190818152602001828054610bc890612b63565b8015610c155780601f10610bea57610100808354040283529160200191610c15565b820191906000526020600020905b815481529060010190602001808311610bf857829003601f168201915b50505091835250506005820154602082015260068083015460408301526007830154606083015260088301546080830152600983015460a09092019160ff1690811115610c6457610c646126b4565b6006811115610c7557610c756126b4565b8152602001600a82018054610c8990612b63565b80601f0160208091040260200160405190810160405280929190818152602001828054610cb590612b63565b8015610d025780601f10610cd757610100808354040283529160200191610d02565b820191906000526020600020905b815481529060010190602001808311610ce557829003601f168201915b50505050508152602001600b82018054610d1b90612b63565b80601f0160208091040260200160405190810160405280929190818152602001828054610d4790612b63565b8015610d945780601f10610d6957610100808354040283529160200191610d94565b820191906000526020600020905b815481529060010190602001808311610d7757829003601f168201915b50505050508152602001600c82018054610dad90612b63565b80601f0160208091040260200160405190810160405280929190818152602001828054610dd990612b63565b8015610e265780601f10610dfb57610100808354040283529160200191610e26565b820191906000526020600020905b815481529060010190602001808311610e0957829003601f168201915b5050509183525050600d919091015460ff1615156020918201528101519091506001600160a01b0316331480610e71575080604001516001600160a01b0316336001600160a01b0316145b610e8d5760405162461bcd60e51b81526004016106bf90612dac565b610e956124a4565b60008581526004602052604090206001600982015460ff166006811115610ebe57610ebe6126b4565b1480610ee257506003600982015460ff166006811115610ee057610ee06126b4565b145b610f455760405162461bcd60e51b815260206004820152602e60248201527f43616e206f6e6c79206469737075746520617070726f766564206f722076657260448201526d696669656420726563656970747360901b60648201526084016106bf565b60098101805460ff19166004179055600c8101610f628682612c9c565b50336001600160a01b0316867f77003cda7e025e253b77d449718f0f9c50421115b4ad7b54087c5a3ce5afaacc8742604051610859929190612d5b565b6000818152600460205260409020600d0154819060ff16610fd25760405162461bcd60e51b81526004016106bf90612b97565b600082815260046020908152604080832081516101c0810183528154815260018201546001600160a01b03908116948201949094526002820154909316918301919091526003810180548694939291606084019161102f90612b63565b80601f016020809104026020016040519081016040528092919081815260200182805461105b90612b63565b80156110a85780601f1061107d576101008083540402835291602001916110a8565b820191906000526020600020905b81548152906001019060200180831161108b57829003601f168201915b505050505081526020016004820180546110c190612b63565b80601f01602080910402602001604051908101604052809291908181526020018280546110ed90612b63565b801561113a5780601f1061110f5761010080835404028352916020019161113a565b820191906000526020600020905b81548152906001019060200180831161111d57829003601f168201915b50505091835250506005820154602082015260068083015460408301526007830154606083015260088301546080830152600983015460a09092019160ff1690811115611189576111896126b4565b600681111561119a5761119a6126b4565b8152602001600a820180546111ae90612b63565b80601f01602080910402602001604051908101604052809291908181526020018280546111da90612b63565b80156112275780601f106111fc57610100808354040283529160200191611227565b820191906000526020600020905b81548152906001019060200180831161120a57829003601f168201915b50505050508152602001600b8201805461124090612b63565b80601f016020809104026020016040519081016040528092919081815260200182805461126c90612b63565b80156112b95780601f1061128e576101008083540402835291602001916112b9565b820191906000526020600020905b81548152906001019060200180831161129c57829003601f168201915b50505050508152602001600c820180546112d290612b63565b80601f01602080910402602001604051908101604052809291908181526020018280546112fe90612b63565b801561134b5780601f106113205761010080835404028352916020019161134b565b820191906000526020600020905b81548152906001019060200180831161132e57829003601f168201915b5050509183525050600d919091015460ff1615156020918201528101519091506001600160a01b0316331480611396575080604001516001600160a01b0316336001600160a01b0316145b6113b25760405162461bcd60e51b81526004016106bf90612dac565b6113ba6124a4565b600084815260046020526040812090600982015460ff1660068111156113e2576113e26126b4565b148061140657506001600982015460ff166006811115611404576114046126b4565b145b6114695760405162461bcd60e51b815260206004820152602e60248201527f43616e206f6e6c792063616e63656c20726571756573746564206f722061707060448201526d726f76656420726563656970747360901b60648201526084016106bf565b6001600982015460ff166006811115611484576114846126b4565b036114e35760018101546001600160a01b031660009081526005602052604090206002810154600160a01b900460ff1680156114c4575060008160030154115b156114e1576003810180549060006114db83612dfc565b91905055505b505b60098101805460ff19166005179055604051428152339086907f12222b5be97b2a286c55e4c19137bd928724e2588eb0b1723bd74c5db60cd79290602001610a62565b60008251116115775760405162461bcd60e51b815260206004820152601d60248201527f427573696e657373206e616d652063616e6e6f7420626520656d70747900000060448201526064016106bf565b33600090815260056020526040902060020154600160a01b900460ff16156115e15760405162461bcd60e51b815260206004820152601b60248201527f427573696e65737320616c72656164792072656769737465726564000000000060448201526064016106bf565b6040805160a08101825283815260208082018490523382840181905260016060840152600060808401819052908152600590915291909120815181906116279082612c9c565b506020820151600182019061163c9082612c9c565b5060408281015160028301805460608601511515600160a01b026001600160a81b03199091166001600160a01b03909316929092179190911790556080909201516003909101555133907f0be3ab823008b5c2d1f739728e470c471833f700ea8d2218bcd369e53c9189b4906116b59085904290612d5b565b60405180910390a25050565b6116c96124ce565b6116d360006124fb565b565b6116dd6124ce565b6000811161172d5760405162461bcd60e51b815260206004820181905260248201527f506572696f64206d7573742062652067726561746572207468616e207a65726f60448201526064016106bf565b600255565b6007602052816000526040600020818154811061174e57600080fd5b90600052602060002001600091509150505481565b6001600160a01b03811660009081526006602090815260409182902080548351818402810184019094528084526060939283018282801561035557602002820191906000526020600020908154815260200190600101908083116103415750505050509050919050565b6117d56124a4565b6001600160a01b0386166118245760405162461bcd60e51b8152602060048201526016602482015275496e76616c69642076656e646f72206164647265737360501b60448201526064016106bf565b336001600160a01b038716036118885760405162461bcd60e51b8152602060048201526024808201527f43616e6e6f74207265717565737420726563656970742066726f6d20796f757260448201526339b2b63360e11b60648201526084016106bf565b60008551116118d95760405162461bcd60e51b815260206004820152601b60248201527f56656e646f72206e616d652063616e6e6f7420626520656d707479000000000060448201526064016106bf565b600083116119295760405162461bcd60e51b815260206004820181905260248201527f416d6f756e74206d7573742062652067726561746572207468616e207a65726f60448201526064016106bf565b4282111561198a5760405162461bcd60e51b815260206004820152602860248201527f5472616e73616374696f6e20646174652063616e6e6f7420626520696e207468604482015267652066757475726560c01b60648201526084016106bf565b6003805490600061199a83612d93565b90915550506003546002546000906119b29042612e13565b9050604051806101c00160405280838152602001896001600160a01b03168152602001336001600160a01b0316815260200188815260200187815260200186815260200185815260200142815260200160025442611a109190612e13565b815260006020808301829052604080840188905280518083018252838152606080860191909152815180840183528481526080860152600160a09095018590528784526004835292819020855181559185015193820180546001600160a01b039586166001600160a01b03199182161790915590850151600283018054919095169116179092558201516003820190611aa99082612c9c565b5060808201516004820190611abe9082612c9c565b5060a0820151816005015560c0820151816006015560e0820151816007015561010082015181600801556101208201518160090160006101000a81548160ff02191690836006811115611b1357611b136126b4565b0217905550610140820151600a820190611b2d9082612c9c565b50610160820151600b820190611b439082612c9c565b50610180820151600c820190611b599082612c9c565b506101a09190910151600d909101805460ff1916911515919091179055336000818152600660209081526040808320805460018181018355918552838520018790556001600160a01b038d168085526007845282852080549283018155855292909320909201859055905190919084907f951f80a33a161430bfabf61659bff7328c0cefbe243a8194fdb5f75628fb6c2190611bfe908c908b908b9042908a90612e2c565b60405180910390a45050611c1160018055565b505050505050565b6000818152600460205260409020600d0154819060ff16611c4c5760405162461bcd60e51b81526004016106bf90612b97565b611c546124a4565b600082815260046020526040902060028101546001600160a01b03163314611cc85760405162461bcd60e51b815260206004820152602160248201527f4f6e6c7920726563697069656e742063616e20766572696679207265636569706044820152601d60fa1b60648201526084016106bf565b6001600982015460ff166006811115611ce357611ce36126b4565b14611d455760405162461bcd60e51b815260206004820152602c60248201527f52656365697074206d75737420626520617070726f766564206265666f72652060448201526b3b32b934b334b1b0ba34b7b760a11b60648201526084016106bf565b60098101805460ff19166003179055604051428152339084907f4d013b5edfcfe659b081abdfd57f3856f9a625a09837fe7b30036800d7b5839e9060200160405180910390a350611d9560018055565b5050565b6006602052816000526040600020818154811061174e57600080fd5b600560205260009081526040902080548190611dd090612b63565b80601f0160208091040260200160405190810160405280929190818152602001828054611dfc90612b63565b8015611e495780601f10611e1e57610100808354040283529160200191611e49565b820191906000526020600020905b815481529060010190602001808311611e2c57829003601f168201915b505050505090806001018054611e5e90612b63565b80601f0160208091040260200160405190810160405280929190818152602001828054611e8a90612b63565b8015611ed75780601f10611eac57610100808354040283529160200191611ed7565b820191906000526020600020905b815481529060010190602001808311611eba57829003601f168201915b50505050600283015460039093015491926001600160a01b03811692600160a01b90910460ff16915085565b611f0b61254b565b6000828152600460205260409020600d0154829060ff16611f3e5760405162461bcd60e51b81526004016106bf90612b97565b60008381526004602090815260409182902082516101c0810184528154815260018201546001600160a01b0390811693820193909352600282015490921692820192909252600382018054919291606084019190611f9b90612b63565b80601f0160208091040260200160405190810160405280929190818152602001828054611fc790612b63565b80156120145780601f10611fe957610100808354040283529160200191612014565b820191906000526020600020905b815481529060010190602001808311611ff757829003601f168201915b5050505050815260200160048201805461202d90612b63565b80601f016020809104026020016040519081016040528092919081815260200182805461205990612b63565b80156120a65780601f1061207b576101008083540402835291602001916120a6565b820191906000526020600020905b81548152906001019060200180831161208957829003601f168201915b50505091835250506005820154602082015260068083015460408301526007830154606083015260088301546080830152600983015460a09092019160ff16908111156120f5576120f56126b4565b6006811115612106576121066126b4565b8152602001600a8201805461211a90612b63565b80601f016020809104026020016040519081016040528092919081815260200182805461214690612b63565b80156121935780601f1061216857610100808354040283529160200191612193565b820191906000526020600020905b81548152906001019060200180831161217657829003601f168201915b50505050508152602001600b820180546121ac90612b63565b80601f01602080910402602001604051908101604052809291908181526020018280546121d890612b63565b80156122255780601f106121fa57610100808354040283529160200191612225565b820191906000526020600020905b81548152906001019060200180831161220857829003601f168201915b50505050508152602001600c8201805461223e90612b63565b80601f016020809104026020016040519081016040528092919081815260200182805461226a90612b63565b80156122b75780601f1061228c576101008083540402835291602001916122b7565b820191906000526020600020905b81548152906001019060200180831161229a57829003601f168201915b5050509183525050600d919091015460ff16151560209091015291505b50919050565b6001600160a01b0381166000908152600760205260408120606091805b82548110156123665760006004600085848154811061231857612318612e63565b6000918252602080832090910154835282019290925260400190206009015460ff16600681111561234b5761234b6126b4565b0361235e578161235a81612d93565b9250505b6001016122f7565b5060008167ffffffffffffffff811115612382576123826127c2565b6040519080825280602002602001820160405280156123ab578160200160208202803683370190505b5090506000805b845481101561245b576000600460008784815481106123d3576123d3612e63565b6000918252602080832090910154835282019290925260400190206009015460ff166006811115612406576124066126b4565b036124535784818154811061241d5761241d612e63565b906000526020600020015483838151811061243a5761243a612e63565b60209081029190910101528161244f81612d93565b9250505b6001016123b2565b509095945050505050565b61246e6124ce565b6001600160a01b03811661249857604051631e4fbdf760e01b8152600060048201526024016106bf565b6124a1816124fb565b50565b6002600154036124c757604051633ee5aeb560e01b815260040160405180910390fd5b6002600155565b6000546001600160a01b031633146116d35760405163118cdaa760e01b81523360048201526024016106bf565b600080546001600160a01b038381166001600160a01b0319831681178455604051919092169283917f8be0079c531659141344cd1fd0a4f28419497f9722a3daafe3b4186f6b6457e09190a35050565b604051806101c001604052806000815260200160006001600160a01b0316815260200160006001600160a01b03168152602001606081526020016060815260200160008152602001600081526020016000815260200160008152602001600060068111156125bb576125bb6126b4565b81526020016060815260200160608152602001606081526020016000151581525090565b80356001600160a01b03811681146125f657600080fd5b919050565b60006020828403121561260d57600080fd5b612616826125df565b9392505050565b602080825282518282018190526000918401906040840190835b8181101561245b578351835260209384019390920191600101612637565b60006020828403121561266757600080fd5b5035919050565b6000815180845260005b8181101561269457602081850181015186830182015201612678565b506000602082860101526020601f19601f83011685010191505092915050565b634e487b7160e01b600052602160045260246000fd5b600781106126e857634e487b7160e01b600052602160045260246000fd5b9052565b8e81526001600160a01b038e1660208201526001600160a01b038d1660408201526101c0606082015260006127256101c083018e61266e565b8281036080840152612737818e61266e565b90508b60a08401528a60c08401528960e0840152886101008401526127606101208401896126ca565b828103610140840152612773818861266e565b9050828103610160840152612788818761266e565b905082810361018084015261279d818661266e565b9150506127af6101a083018415159052565b9f9e505050505050505050505050505050565b634e487b7160e01b600052604160045260246000fd5b600082601f8301126127e957600080fd5b813567ffffffffffffffff811115612803576128036127c2565b604051601f8201601f19908116603f0116810167ffffffffffffffff81118282101715612832576128326127c2565b60405281815283820160200185101561284a57600080fd5b816020850160208301376000918101602001919091529392505050565b6000806040838503121561287a57600080fd5b82359150602083013567ffffffffffffffff81111561289857600080fd5b6128a4858286016127d8565b9150509250929050565b600080604083850312156128c157600080fd5b823567ffffffffffffffff8111156128d857600080fd5b6128e4858286016127d8565b925050602083013567ffffffffffffffff81111561289857600080fd5b6000806040838503121561291457600080fd5b61291d836125df565b946020939093013593505050565b60008060008060008060c0878903121561294457600080fd5b61294d876125df565b9550602087013567ffffffffffffffff81111561296957600080fd5b61297589828a016127d8565b955050604087013567ffffffffffffffff81111561299257600080fd5b61299e89828a016127d8565b945050606087013592506080870135915060a087013567ffffffffffffffff8111156129c957600080fd5b6129d589828a016127d8565b9150509295509295509295565b60a0815260006129f560a083018861266e565b8281036020840152612a07818861266e565b6001600160a01b039690961660408401525050911515606083015260809091015292915050565b602081528151602082015260006020830151612a5560408401826001600160a01b03169052565b5060408301516001600160a01b03811660608401525060608301516101c06080840152612a866101e084018261266e565b90506080840151601f198483030160a0850152612aa3828261266e565b91505060a084015160c084015260c084015160e084015260e0840151610100840152610100840151610120840152610120840151612ae56101408501826126ca565b50610140840151838203601f1901610160850152612b03828261266e565b915050610160840151601f1984830301610180850152612b23828261266e565b915050610180840151601f19848303016101a0850152612b43828261266e565b9150506101a0840151612b5b6101c085018215159052565b509392505050565b600181811c90821680612b7757607f821691505b6020821081036122d457634e487b7160e01b600052602260045260246000fd5b602080825260169082015275149958d95a5c1d08191bd95cc81b9bdd08195e1a5cdd60521b604082015260600190565b60208082526027908201527f4f6e6c79207468652076656e646f722063616e20706572666f726d20746869736040820152661030b1ba34b7b760c91b606082015260800190565b60208082526022908201527f52656365697074206973206e6f7420696e207265717565737465642073746174604082015261757360f01b606082015260800190565b601f821115612c9757806000526020600020601f840160051c81016020851015612c775750805b601f840160051c820191505b8181101561086b5760008155600101612c83565b505050565b815167ffffffffffffffff811115612cb657612cb66127c2565b612cca81612cc48454612b63565b84612c50565b6020601f821160018114612cfe5760008315612ce65750848201515b600019600385901b1c1916600184901b17845561086b565b600084815260208120601f198516915b82811015612d2e5787850151825560209485019460019092019101612d0e565b5084821015612d4c5786840151600019600387901b60f8161c191681555b50505050600190811b01905550565b604081526000612d6e604083018561266e565b90508260208301529392505050565b634e487b7160e01b600052601160045260246000fd5b600060018201612da557612da5612d7d565b5060010190565b60208082526030908201527f4f6e6c7920697373756572206f7220726563697069656e742063616e2070657260408201526f3337b936903a3434b99030b1ba34b7b760811b606082015260800190565b600081612e0b57612e0b612d7d565b506000190190565b80820180821115612e2657612e26612d7d565b92915050565b60a081526000612e3f60a083018861266e565b90508560208301528460408301528360608301528260808301529695505050505050565b634e487b7160e01b600052603260045260246000fdfea264697066735822122005197da1effb22118dcdbad33b2e6a39d5b6b4225c2251d3fef184389bf28bf564736f6c634300081e0033",
  "linkReferences": {},
  "deployedLinkReferences": {}
}